:10085500E4FFFE758901758CF8758ACCD28C308DD4
:10086500FDC28CC28D0FBF00010EEF64FA4E70E31E
:010875002260
:10080000E4F590D290120855C290120855D2911278
:100810000855C291120855D292120855C292120878
:1008200055D293120855C293120855D29412085506
:10083000C294120855D295120855C295120855D285
:1008400096120855C296120855D297120855C297AB
:0508500012085580AE06
:030000000208767D
:0C087600787FE4F6D8FD758107020800C9
:00000001FF
